{
  "contractName": "Healthcare",
  "abi": [
    {
      "inputs": [],
      "payable": false,
      "stateMutability": "nonpayable",
      "type": "constructor",
      "signature": "constructor"
    },
    {
      "constant": true,
      "inputs": [],
      "name": "checkOwner",
      "outputs": [
        {
          "name": "_own",
          "type": "bool"
        }
      ],
      "payable": false,
      "stateMutability": "view",
      "type": "function",
      "signature": "0xcdbce03d"
    },
    {
      "constant": true,
      "inputs": [],
      "name": "HospitalDetail",
      "outputs": [
        {
          "name": "hname",
          "type": "string"
        },
        {
          "name": "hadd",
          "type": "string"
        },
        {
          "name": "hcity",
          "type": "string"
        },
        {
          "name": "hcountry",
          "type": "string"
        }
      ],
      "payable": false,
      "stateMutability": "view",
      "type": "function",
      "signature": "0xad477933"
    },
    {
      "constant": false,
      "inputs": [
        {
          "name": "_name",
          "type": "string"
        },
        {
          "name": "_dob",
          "type": "string"
        },
        {
          "name": "_gender",
          "type": "string"
        },
        {
          "name": "_bloodgrp",
          "type": "string"
        }
      ],
      "name": "addPatient",
      "outputs": [],
      "payable": false,
      "stateMutability": "nonpayable",
      "type": "function",
      "signature": "0xff8e704f"
    },
    {
      "constant": true,
      "inputs": [
        {
          "name": "_id",
          "type": "uint256"
        }
      ],
      "name": "checkID",
      "outputs": [
        {
          "name": "_checkid",
          "type": "bool"
        }
      ],
      "payable": false,
      "stateMutability": "view",
      "type": "function",
      "signature": "0x8d94f0bb"
    },
    {
      "constant": false,
      "inputs": [
        {
          "name": "_id",
          "type": "uint256"
        },
        {
          "name": "_hash",
          "type": "string"
        },
        {
          "name": "_time",
          "type": "string"
        }
      ],
      "name": "addRecords",
      "outputs": [],
      "payable": false,
      "stateMutability": "nonpayable",
      "type": "function",
      "signature": "0x2ac090b9"
    },
    {
      "constant": true,
      "inputs": [
        {
          "name": "_id",
          "type": "uint256"
        }
      ],
      "name": "retrieve",
      "outputs": [
        {
          "name": "_name",
          "type": "string"
        },
        {
          "name": "_age",
          "type": "string"
        },
        {
          "name": "_gender",
          "type": "string"
        },
        {
          "name": "_bloodgrp",
          "type": "string"
        },
        {
          "name": "_hashes",
          "type": "string[]"
        },
        {
          "name": "_time",
          "type": "string[]"
        }
      ],
      "payable": false,
      "stateMutability": "view",
      "type": "function",
      "signature": "0x8f88708b"
    }
  ],
  "bytecode": "0x60806040523480156200001157600080fd5b5060016000803373ffffffffffffffffffffffffffffffffffffffff1673ffffffffffffffffffffffffffffffffffffffff16815260200190815260200160002060006101000a81548160ff0219169083151502179055506080604051908101604052806040805190810160405280601481526020017f436f6e747261637420496e697469616c6973657200000000000000000000000081525081526020016040805190810160405280601181526020017f447761726b6120536563746f72202d203100000000000000000000000000000081525081526020016040805190810160405280600981526020017f4e65772044656c6869000000000000000000000000000000000000000000000081525081526020016040805190810160405280600581526020017f496e646961000000000000000000000000000000000000000000000000000000815250815250600460003373ffffffffffffffffffffffffffffffffffffffff1673ffffffffffffffffffffffffffffffffffffffff1681526020019081526020016000206000820151816000019080519060200190620001bc9291906200022c565b506020820151816001019080519060200190620001db9291906200022c565b506040820151816002019080519060200190620001fa9291906200022c565b506060820151816003019080519060200190620002199291906200022c565b509050506103e8600581905550620002db565b828054600181600116156101000203166002900490600052602060002090601f016020900481019282601f106200026f57805160ff1916838001178555620002a0565b82800160010185558215620002a0579182015b828111156200029f57825182559160200191906001019062000282565b5b509050620002af9190620002b3565b5090565b620002d891905b80821115620002d4576000816000905550600101620002ba565b5090565b90565b61141c80620002eb6000396000f3fe608060405260043610610078576000357c0100000000000000000000000000000000000000000000000000000000900463ffffffff1680632ac090b91461007d5780638d94f0bb146100a65780638f88708b146100e3578063ad47793314610125578063cdbce03d14610153578063ff8e704f1461017e575b600080fd5b34801561008957600080fd5b506100a4600480360361009f9190810190611076565b6101a7565b005b3480156100b257600080fd5b506100cd60048036036100c8919081019061104d565b6102dc565b6040516100da91906111de565b60405180910390f35b3480156100ef57600080fd5b5061010a6004803603610105919081019061104d565b610317565b60405161011c9695949392919061125a565b60405180910390f35b34801561013157600080fd5b5061013a610883565b60405161014a94939291906111f9565b60405180910390f35b34801561015f57600080fd5b50610168610bf3565b60405161017591906111de565b60405180910390f35b34801561018a57600080fd5b506101a560048036036101a09190810190610f8a565b610c57565b005b600115156000803373ffffffffffffffffffffffffffffffffffffffff1673ffffffffffffffffffffffffffffffffffffffff16815260200190815260200160002060009054906101000a900460ff16151514151561020557600080fd5b6003600084815260200190815260200160002060009054906101000a900460ff16151561023157600080fd5b60026000848152602001908152602001600020600001829080600181540180825580915050906001820390600052602060002001600090919290919091509080519060200190610282929190610da9565b5050600260008481526020019081526020016000206001018190806001815401808255809150509060018203906000526020600020016000909192909190915090805190602001906102d5929190610da9565b5050505050565b60006003600083815260200190815260200160002060009054906101000a900460ff161561030d5760019050610312565b600090505b919050565b606080606080606080600115156000803373ffffffffffffffffffffffffffffffffffffffff1673ffffffffffffffffffffffffffffffffffffffff16815260200190815260200160002060009054906101000a900460ff16151514151561037e57600080fd5b6003600088815260200190815260200160002060009054906101000a900460ff1615156103aa57600080fd5b6103b2610e29565b6001600089815260200190815260200160002060806040519081016040529081600082018054600181600116156101000203166002900480601f01602080910402602001604051908101604052809291908181526020018280546001816001161561010002031660029004801561046a5780601f1061043f5761010080835404028352916020019161046a565b820191906000526020600020905b81548152906001019060200180831161044d57829003601f168201915b50505050508152602001600182018054600181600116156101000203166002900480601f01602080910402602001604051908101604052809291908181526020018280546001816001161561010002031660029004801561050c5780601f106104e15761010080835404028352916020019161050c565b820191906000526020600020905b8154815290600101906020018083116104ef57829003601f168201915b50505050508152602001600282018054600181600116156101000203166002900480601f0160208091040260200160405190810160405280929190818152602001828054600181600116156101000203166002900480156105ae5780601f10610583576101008083540402835291602001916105ae565b820191906000526020600020905b81548152906001019060200180831161059157829003601f168201915b50505050508152602001600382018054600181600116156101000203166002900480601f0160208091040260200160405190810160405280929190818152602001828054600181600116156101000203166002900480156106505780601f1061062557610100808354040283529160200191610650565b820191906000526020600020905b81548152906001019060200180831161063357829003601f168201915b50505050508152505090508060000151816020015182604001518360600151600260008d8152602001908152602001600020600001600260008e815260200190815260200160002060010185955084945083935082925081805480602002602001604051908101604052809291908181526020016000905b82821015610784578382906000526020600020018054600181600116156101000203166002900480601f0160208091040260200160405190810160405280929190818152602001828054600181600116156101000203166002900480156107705780601f1061074557610100808354040283529160200191610770565b820191906000526020600020905b81548152906001019060200180831161075357829003601f168201915b5050505050815260200190600101906106c8565b50505050915080805480602002602001604051908101604052809291908181526020016000905b82821015610867578382906000526020600020018054600181600116156101000203166002900480601f0160208091040260200160405190810160405280929190818152602001828054600181600116156101000203166002900480156108535780601f1061082857610100808354040283529160200191610853565b820191906000526020600020905b81548152906001019060200180831161083657829003601f168201915b5050505050815260200190600101906107ab565b5050505090509650965096509650965096505091939550919395565b606080606080600115156000803373ffffffffffffffffffffffffffffffffffffffff1673ffffffffffffffffffffffffffffffffffffffff16815260200190815260200160002060009054906101000a900460ff1615151415156108e757600080fd5b6108ef610e52565b600460003373ffffffffffffffffffffffffffffffffffffffff1673ffffffffffffffffffffffffffffffffffffffff16815260200190815260200160002060806040519081016040529081600082018054600181600116156101000203166002900480601f0160208091040260200160405190810160405280929190818152602001828054600181600116156101000203166002900480156109d35780601f106109a8576101008083540402835291602001916109d3565b820191906000526020600020905b8154815290600101906020018083116109b657829003601f168201915b50505050508152602001600182018054600181600116156101000203166002900480601f016020809104026020016040519081016040528092919081815260200182805460018160011615610100020316600290048015610a755780601f10610a4a57610100808354040283529160200191610a75565b820191906000526020600020905b815481529060010190602001808311610a5857829003601f168201915b50505050508152602001600282018054600181600116156101000203166002900480601f016020809104026020016040519081016040528092919081815260200182805460018160011615610100020316600290048015610b175780601f10610aec57610100808354040283529160200191610b17565b820191906000526020600020905b815481529060010190602001808311610afa57829003601f168201915b50505050508152602001600382018054600181600116156101000203166002900480601f016020809104026020016040519081016040528092919081815260200182805460018160011615610100020316600290048015610bb95780601f10610b8e57610100808354040283529160200191610bb9565b820191906000526020600020905b815481529060010190602001808311610b9c57829003601f168201915b5050505050815250509050806000015181602001518260400151836060015183935082925081915080905094509450945094505090919293565b60008060003373ffffffffffffffffffffffffffffffffffffffff1673ffffffffffffffffffffffffffffffffffffffff16815260200190815260200160002060009054906101000a900460ff1615610c4f5760019050610c54565b600090505b90565b600115156000803373ffffffffffffffffffffffffffffffffffffffff1673ffffffffffffffffffffffffffffffffffffffff16815260200190815260200160002060009054906101000a900460ff161515141515610cb557600080fd5b600560008154809291906001019190505550608060405190810160405280858152602001848152602001838152602001828152506001600060055481526020019081526020016000206000820151816000019080519060200190610d1a929190610e7b565b506020820151816001019080519060200190610d37929190610e7b565b506040820151816002019080519060200190610d54929190610e7b565b506060820151816003019080519060200190610d71929190610e7b565b50905050600160036000600554815260200190815260200160002060006101000a81548160ff02191690831515021790555050505050565b828054600181600116156101000203166002900490600052602060002090601f016020900481019282601f10610dea57805160ff1916838001178555610e18565b82800160010185558215610e18579182015b82811115610e17578251825591602001919060010190610dfc565b5b509050610e259190610efb565b5090565b608060405190810160405280606081526020016060815260200160608152602001606081525090565b608060405190810160405280606081526020016060815260200160608152602001606081525090565b828054600181600116156101000203166002900490600052602060002090601f016020900481019282601f10610ebc57805160ff1916838001178555610eea565b82800160010185558215610eea579182015b82811115610ee9578251825591602001919060010190610ece565b5b509050610ef79190610efb565b5090565b610f1d91905b80821115610f19576000816000905550600101610f01565b5090565b90565b600082601f8301121515610f3357600080fd5b8135610f46610f4182611312565b6112e5565b91508082526020830160208301858383011115610f6257600080fd5b610f6d83828461138f565b50505092915050565b6000610f828235611385565b905092915050565b60008060008060808587031215610fa057600080fd5b600085013567ffffffffffffffff811115610fba57600080fd5b610fc687828801610f20565b945050602085013567ffffffffffffffff811115610fe357600080fd5b610fef87828801610f20565b935050604085013567ffffffffffffffff81111561100c57600080fd5b61101887828801610f20565b925050606085013567ffffffffffffffff81111561103557600080fd5b61104187828801610f20565b91505092959194509250565b60006020828403121561105f57600080fd5b600061106d84828501610f76565b91505092915050565b60008060006060848603121561108b57600080fd5b600061109986828701610f76565b935050602084013567ffffffffffffffff8111156110b657600080fd5b6110c286828701610f20565b925050604084013567ffffffffffffffff8111156110df57600080fd5b6110eb86828701610f20565b9150509250925092565b60006111008261134b565b808452602084019350836020820285016111198561133e565b60005b848110156111525783830388526111348383516111a8565b925061113f8261136c565b915060208801975060018101905061111c565b508196508694505050505092915050565b61116c81611379565b82525050565b600061117d82611361565b80845261119181602086016020860161139e565b61119a816113d1565b602085010191505092915050565b60006111b382611356565b8084526111c781602086016020860161139e565b6111d0816113d1565b602085010191505092915050565b60006020820190506111f36000830184611163565b92915050565b600060808201905081810360008301526112138187611172565b905081810360208301526112278186611172565b9050818103604083015261123b8185611172565b9050818103606083015261124f8184611172565b905095945050505050565b600060c08201905081810360008301526112748189611172565b905081810360208301526112888188611172565b9050818103604083015261129c8187611172565b905081810360608301526112b08186611172565b905081810360808301526112c481856110f5565b905081810360a08301526112d881846110f5565b9050979650505050505050565b6000604051905081810181811067ffffffffffffffff8211171561130857600080fd5b8060405250919050565b600067ffffffffffffffff82111561132957600080fd5b601f19601f8301169050602081019050919050565b6000602082019050919050565b600081519050919050565b600081519050919050565b600081519050919050565b6000602082019050919050565b60008115159050919050565b6000819050919050565b82818337600083830152505050565b60005b838110156113bc5780820151818401526020810190506113a1565b838111156113cb576000848401525b50505050565b6000601f19601f830116905091905056fea265627a7a723058209aac3d61e56cb1a9f3bc876d15f4478b366294d76fc9e2da466e4988cdcb6aa76c6578706572696d656e74616cf50037",
  "source": "pragma solidity ^0.5.0;\npragma experimental ABIEncoderV2;\n\ncontract Healthcare{\n    mapping(address => bool) private owners;\n    struct person{\n        string name;\n        string age;\n        string gender;\n        string bloodgrp;\n    }\n    struct links{\n        string [] hash;\n        string [] time;\n    }\n    struct hospital_data {\n        string hosp_name;\n        string hosp_add;\n        string hosp_city;\n        string hosp_country;\n    }\n    \n    mapping(uint256 => person) private patient;\n    mapping(uint256 => links) private hashes; \n    mapping(uint256 => bool) private check;\n    mapping (address => hospital_data) private Hospital_Info;\n    \n    constructor() public {\n        owners[msg.sender] = true;\n        Hospital_Info[msg.sender] = hospital_data(\"Contract Initialiser\" ,\"Dwarka Sector - 1\",\"New Delhi\",\"India\");\n        id = 1000;\n    } \n    \n    modifier onlyOwner {\n        require(owners[msg.sender] == true);\n        _;\n    }\n    uint256 private id;\n    \n    function checkOwner() public view returns(bool _own){\n        if(owners[msg.sender]){\n        return true;\n    }\n        \n        return false;\n    }\n    function HospitalDetail () public view onlyOwner returns(string memory hname, string memory hadd, string memory hcity, string memory hcountry){\n        hospital_data memory H = Hospital_Info[msg.sender];\n        return (H.hosp_name,H.hosp_add, H.hosp_city, H.hosp_country);        \n    }\n    \n    function addPatient(string memory _name, string memory _dob, string memory _gender, string memory _bloodgrp) public onlyOwner{\n        id++ ;\n        patient[id] = person(_name,_dob, _gender, _bloodgrp);\n        check[id] = true;\n    }\n    \n    function checkID(uint256 _id) public view returns(bool _checkid){\n        if(check[_id]){\n        return true;\n        }\n        return false;\n    }\n    \n    function addRecords(uint256 _id, string memory _hash, string memory _time) public onlyOwner {\n        require(check[_id]);\n        hashes[_id].hash.push(_hash);\n        hashes[_id].time.push(_time);\n    }\n    \n    function retrieve(uint256 _id)public view onlyOwner returns(string memory _name , string memory _age, string memory _gender, string memory _bloodgrp, string [] memory _hashes, string [] memory _time){\n        require(check[_id]);\n        person memory P = patient[_id];\n        return (P.name, P.age, P.gender, P.bloodgrp,hashes[_id].hash, hashes[_id].time);\n    } \n    \n}",
  "sourcePath": "/home/ayush1586/Desktop/Hospital_BlockChain/src/contracts/Healthcare.sol",
  "compiler": {
    "name": "solc",
    "version": "0.5.0+commit.1d4f565a.Emscripten.clang"
  },
  "schemaVersion": "3.0.1",
  "updatedAt": "2020-03-19T12:38:28.359Z",
  "devdoc": {
    "methods": {}
  },
  "userdoc": {
    "methods": {}
  }
}