{
  "contractName": "Healthcare",
  "abi": [
    {
      "inputs": [],
      "payable": false,
      "stateMutability": "nonpayable",
      "type": "constructor",
      "signature": "constructor"
    },
    {
      "constant": true,
      "inputs": [],
      "name": "checkOwner",
      "outputs": [
        {
          "name": "_own",
          "type": "bool"
        }
      ],
      "payable": false,
      "stateMutability": "view",
      "type": "function",
      "signature": "0xcdbce03d"
    },
    {
      "constant": false,
      "inputs": [
        {
          "name": "_name",
          "type": "string"
        },
        {
          "name": "_dob",
          "type": "string"
        },
        {
          "name": "_gender",
          "type": "string"
        },
        {
          "name": "_bloodgrp",
          "type": "string"
        }
      ],
      "name": "addPatient",
      "outputs": [],
      "payable": false,
      "stateMutability": "nonpayable",
      "type": "function",
      "signature": "0xff8e704f"
    },
    {
      "constant": true,
      "inputs": [
        {
          "name": "_id",
          "type": "uint256"
        }
      ],
      "name": "checkID",
      "outputs": [
        {
          "name": "_checkid",
          "type": "bool"
        }
      ],
      "payable": false,
      "stateMutability": "view",
      "type": "function",
      "signature": "0x8d94f0bb"
    },
    {
      "constant": false,
      "inputs": [
        {
          "name": "_id",
          "type": "uint256"
        },
        {
          "name": "_hash",
          "type": "string"
        }
      ],
      "name": "addRecords",
      "outputs": [],
      "payable": false,
      "stateMutability": "nonpayable",
      "type": "function",
      "signature": "0x3dc25c59"
    },
    {
      "constant": true,
      "inputs": [
        {
          "name": "_id",
          "type": "uint256"
        }
      ],
      "name": "retrieve",
      "outputs": [
        {
          "name": "_name",
          "type": "string"
        },
        {
          "name": "_age",
          "type": "string"
        },
        {
          "name": "_gender",
          "type": "string"
        },
        {
          "name": "_bloodgrp",
          "type": "string"
        },
        {
          "name": "_hashes",
          "type": "string[]"
        }
      ],
      "payable": false,
      "stateMutability": "view",
      "type": "function",
      "signature": "0x8f88708b"
    }
  ],
  "bytecode": "0x608060405234801561001057600080fd5b5060016000803373ffffffffffffffffffffffffffffffffffffffff1673ffffffffffffffffffffffffffffffffffffffff16815260200190815260200160002060006101000a81548160ff0219169083151502179055506103e8600481905550610e58806100806000396000f3fe60806040526004361061006d576000357c0100000000000000000000000000000000000000000000000000000000900463ffffffff1680633dc25c59146100725780638d94f0bb1461009b5780638f88708b146100d8578063cdbce03d14610119578063ff8e704f14610144575b600080fd5b34801561007e57600080fd5b5061009960048036036100949190810190610b53565b61016d565b005b3480156100a757600080fd5b506100c260048036036100bd9190810190610b2a565b61024e565b6040516100cf9190610c90565b60405180910390f35b3480156100e457600080fd5b506100ff60048036036100fa9190810190610b2a565b610289565b604051610110959493929190610cab565b60405180910390f35b34801561012557600080fd5b5061012e6106f9565b60405161013b9190610c90565b60405180910390f35b34801561015057600080fd5b5061016b60048036036101669190810190610a67565b61075d565b005b600115156000803373ffffffffffffffffffffffffffffffffffffffff1673ffffffffffffffffffffffffffffffffffffffff16815260200190815260200160002060009054906101000a900460ff1615151415156101cb57600080fd5b6003600083815260200190815260200160002060009054906101000a900460ff1615156101f757600080fd5b600260008381526020019081526020016000206000018190806001815401808255809150509060018203906000526020600020016000909192909190915090805190602001906102489291906108af565b50505050565b60006003600083815260200190815260200160002060009054906101000a900460ff161561027f5760019050610284565b600090505b919050565b6060806060806060600115156000803373ffffffffffffffffffffffffffffffffffffffff1673ffffffffffffffffffffffffffffffffffffffff16815260200190815260200160002060009054906101000a900460ff1615151415156102ef57600080fd5b6003600087815260200190815260200160002060009054906101000a900460ff16151561031b57600080fd5b61032361092f565b6001600088815260200190815260200160002060806040519081016040529081600082018054600181600116156101000203166002900480601f0160208091040260200160405190810160405280929190818152602001828054600181600116156101000203166002900480156103db5780601f106103b0576101008083540402835291602001916103db565b820191906000526020600020905b8154815290600101906020018083116103be57829003601f168201915b50505050508152602001600182018054600181600116156101000203166002900480601f01602080910402602001604051908101604052809291908181526020018280546001816001161561010002031660029004801561047d5780601f106104525761010080835404028352916020019161047d565b820191906000526020600020905b81548152906001019060200180831161046057829003601f168201915b50505050508152602001600282018054600181600116156101000203166002900480601f01602080910402602001604051908101604052809291908181526020018280546001816001161561010002031660029004801561051f5780601f106104f45761010080835404028352916020019161051f565b820191906000526020600020905b81548152906001019060200180831161050257829003601f168201915b50505050508152602001600382018054600181600116156101000203166002900480601f0160208091040260200160405190810160405280929190818152602001828054600181600116156101000203166002900480156105c15780601f10610596576101008083540402835291602001916105c1565b820191906000526020600020905b8154815290600101906020018083116105a457829003601f168201915b50505050508152505090508060000151816020015182604001518360600151600260008c815260200190815260200160002060000184945083935082925081915080805480602002602001604051908101604052809291908181526020016000905b828210156106df578382906000526020600020018054600181600116156101000203166002900480601f0160208091040260200160405190810160405280929190818152602001828054600181600116156101000203166002900480156106cb5780601f106106a0576101008083540402835291602001916106cb565b820191906000526020600020905b8154815290600101906020018083116106ae57829003601f168201915b505050505081526020019060010190610623565b505050509050955095509550955095505091939590929450565b60008060003373ffffffffffffffffffffffffffffffffffffffff1673ffffffffffffffffffffffffffffffffffffffff16815260200190815260200160002060009054906101000a900460ff1615610755576001905061075a565b600090505b90565b600115156000803373ffffffffffffffffffffffffffffffffffffffff1673ffffffffffffffffffffffffffffffffffffffff16815260200190815260200160002060009054906101000a900460ff1615151415156107bb57600080fd5b600460008154809291906001019190505550608060405190810160405280858152602001848152602001838152602001828152506001600060045481526020019081526020016000206000820151816000019080519060200190610820929190610958565b50602082015181600101908051906020019061083d929190610958565b50604082015181600201908051906020019061085a929190610958565b506060820151816003019080519060200190610877929190610958565b50905050600160036000600454815260200190815260200160002060006101000a81548160ff02191690831515021790555050505050565b828054600181600116156101000203166002900490600052602060002090601f016020900481019282601f106108f057805160ff191683800117855561091e565b8280016001018555821561091e579182015b8281111561091d578251825591602001919060010190610902565b5b50905061092b91906109d8565b5090565b608060405190810160405280606081526020016060815260200160608152602001606081525090565b828054600181600116156101000203166002900490600052602060002090601f016020900481019282601f1061099957805160ff19168380011785556109c7565b828001600101855582156109c7579182015b828111156109c65782518255916020019190600101906109ab565b5b5090506109d491906109d8565b5090565b6109fa91905b808211156109f65760008160009055506001016109de565b5090565b90565b600082601f8301121515610a1057600080fd5b8135610a23610a1e82610d4e565b610d21565b91508082526020830160208301858383011115610a3f57600080fd5b610a4a838284610dcb565b50505092915050565b6000610a5f8235610dc1565b905092915050565b60008060008060808587031215610a7d57600080fd5b600085013567ffffffffffffffff811115610a9757600080fd5b610aa3878288016109fd565b945050602085013567ffffffffffffffff811115610ac057600080fd5b610acc878288016109fd565b935050604085013567ffffffffffffffff811115610ae957600080fd5b610af5878288016109fd565b925050606085013567ffffffffffffffff811115610b1257600080fd5b610b1e878288016109fd565b91505092959194509250565b600060208284031215610b3c57600080fd5b6000610b4a84828501610a53565b91505092915050565b60008060408385031215610b6657600080fd5b6000610b7485828601610a53565b925050602083013567ffffffffffffffff811115610b9157600080fd5b610b9d858286016109fd565b9150509250929050565b6000610bb282610d87565b80845260208401935083602082028501610bcb85610d7a565b60005b84811015610c04578383038852610be6838351610c5a565b9250610bf182610da8565b9150602088019750600181019050610bce565b508196508694505050505092915050565b610c1e81610db5565b82525050565b6000610c2f82610d9d565b808452610c43816020860160208601610dda565b610c4c81610e0d565b602085010191505092915050565b6000610c6582610d92565b808452610c79816020860160208601610dda565b610c8281610e0d565b602085010191505092915050565b6000602082019050610ca56000830184610c15565b92915050565b600060a0820190508181036000830152610cc58188610c24565b90508181036020830152610cd98187610c24565b90508181036040830152610ced8186610c24565b90508181036060830152610d018185610c24565b90508181036080830152610d158184610ba7565b90509695505050505050565b6000604051905081810181811067ffffffffffffffff82111715610d4457600080fd5b8060405250919050565b600067ffffffffffffffff821115610d6557600080fd5b601f19601f8301169050602081019050919050565b6000602082019050919050565b600081519050919050565b600081519050919050565b600081519050919050565b6000602082019050919050565b60008115159050919050565b6000819050919050565b82818337600083830152505050565b60005b83811015610df8578082015181840152602081019050610ddd565b83811115610e07576000848401525b50505050565b6000601f19601f830116905091905056fea265627a7a723058200e441a336a2569f5df9087a3247dc709ba4c6bf53fb30862706de17610cc67276c6578706572696d656e74616cf50037",
  "source": "pragma solidity ^0.5.0;\npragma experimental ABIEncoderV2;\n\ncontract Healthcare{\n    mapping(address => bool) private owners;\n    struct person{\n        string name;\n        string age;\n        string gender;\n        string bloodgrp;\n    }\n    struct links{\n        string [] hash;\n    }\n    \n    mapping(uint256 => person) private patient;\n    mapping(uint256 => links) private hashes; \n    mapping(uint256 => bool) private check;\n    \n    constructor() public {\n        owners[msg.sender] = true;\n        id = 1000;\n    } \n    \n    modifier onlyOwner {\n        require(owners[msg.sender] == true);\n        _;\n    }\n    uint256 private id;\n    \n    function checkOwner() public view returns(bool _own){\n        if(owners[msg.sender]){\n        return true;\n    }\n        \n        return false;\n    }\n    \n    function addPatient(string memory _name, string memory _dob, string memory _gender, string memory _bloodgrp) public onlyOwner{\n        id++ ;\n        patient[id] = person(_name,_dob, _gender, _bloodgrp);\n        check[id] = true;\n    }\n    \n    function checkID(uint256 _id) public view returns(bool _checkid){\n        if(check[_id]){\n        return true;\n        }\n        return false;\n    }\n    \n    function addRecords(uint256 _id, string memory _hash) public onlyOwner {\n        require(check[_id]);\n        hashes[_id].hash.push(_hash);\n    }\n    \n    function retrieve(uint256 _id)public view onlyOwner returns(string memory _name , string memory _age, string memory _gender, string memory _bloodgrp, string [] memory _hashes){\n        require(check[_id]);\n        person memory P = patient[_id];\n        return (P.name, P.age, P.gender, P.bloodgrp,hashes[_id].hash);\n    } \n    \n}",
  "sourcePath": "/home/ayush1586/Desktop/hospital/src/contracts/Healthcare.sol",
  "compiler": {
    "name": "solc",
    "version": "0.5.0+commit.1d4f565a.Emscripten.clang"
  },
  "schemaVersion": "3.0.1",
  "updatedAt": "2020-03-19T10:18:22.791Z",
  "devdoc": {
    "methods": {}
  },
  "userdoc": {
    "methods": {}
  }
}