{
  "contractName": "Healthcare",
  "abi": [
    {
      "inputs": [],
      "payable": false,
      "stateMutability": "nonpayable",
      "type": "constructor",
      "signature": "constructor"
    },
    {
      "constant": true,
      "inputs": [],
      "name": "checkOwner",
      "outputs": [
        {
          "name": "_own",
          "type": "bool"
        }
      ],
      "payable": false,
      "stateMutability": "view",
      "type": "function",
      "signature": "0xcdbce03d"
    },
    {
      "constant": true,
      "inputs": [
        {
          "name": "Add",
          "type": "address"
        }
      ],
      "name": "HospitalDetail",
      "outputs": [
        {
          "name": "hname",
          "type": "string"
        },
        {
          "name": "hadd",
          "type": "string"
        },
        {
          "name": "hcity",
          "type": "string"
        },
        {
          "name": "hcountry",
          "type": "string"
        }
      ],
      "payable": false,
      "stateMutability": "view",
      "type": "function",
      "signature": "0x01dc1b88"
    },
    {
      "constant": false,
      "inputs": [
        {
          "name": "_name",
          "type": "string"
        },
        {
          "name": "_dob",
          "type": "string"
        },
        {
          "name": "_bloodgrp",
          "type": "string"
        }
      ],
      "name": "addPatient",
      "outputs": [],
      "payable": false,
      "stateMutability": "nonpayable",
      "type": "function",
      "signature": "0x0c380fc9"
    },
    {
      "constant": true,
      "inputs": [
        {
          "name": "_id",
          "type": "uint256"
        }
      ],
      "name": "checkID",
      "outputs": [
        {
          "name": "_checkid",
          "type": "bool"
        }
      ],
      "payable": false,
      "stateMutability": "view",
      "type": "function",
      "signature": "0x8d94f0bb"
    },
    {
      "constant": false,
      "inputs": [
        {
          "name": "_id",
          "type": "uint256"
        },
        {
          "name": "_hash",
          "type": "string"
        },
        {
          "name": "_time",
          "type": "string"
        }
      ],
      "name": "addRecords",
      "outputs": [],
      "payable": false,
      "stateMutability": "nonpayable",
      "type": "function",
      "signature": "0x2ac090b9"
    },
    {
      "constant": true,
      "inputs": [
        {
          "name": "_id",
          "type": "uint256"
        }
      ],
      "name": "retrieve",
      "outputs": [
        {
          "name": "_name",
          "type": "string"
        },
        {
          "name": "_age",
          "type": "string"
        },
        {
          "name": "_bloodgrp",
          "type": "string"
        },
        {
          "name": "_hashes",
          "type": "string[]"
        },
        {
          "name": "_time",
          "type": "string[]"
        },
        {
          "name": "_hospital",
          "type": "address[]"
        }
      ],
      "payable": false,
      "stateMutability": "view",
      "type": "function",
      "signature": "0x8f88708b"
    }
  ],
  "bytecode": "0x60806040523480156200001157600080fd5b5060016000803373ffffffffffffffffffffffffffffffffffffffff1673ffffffffffffffffffffffffffffffffffffffff16815260200190815260200160002060006101000a81548160ff0219169083151502179055506080604051908101604052806040805190810160405280601481526020017f436f6e747261637420496e697469616c6973657200000000000000000000000081525081526020016040805190810160405280601181526020017f447761726b6120536563746f72202d203100000000000000000000000000000081525081526020016040805190810160405280600981526020017f4e65772044656c6869000000000000000000000000000000000000000000000081525081526020016040805190810160405280600581526020017f496e646961000000000000000000000000000000000000000000000000000000815250815250600460003373ffffffffffffffffffffffffffffffffffffffff1673ffffffffffffffffffffffffffffffffffffffff1681526020019081526020016000206000820151816000019080519060200190620001bc9291906200022c565b506020820151816001019080519060200190620001db9291906200022c565b506040820151816002019080519060200190620001fa9291906200022c565b506060820151816003019080519060200190620002199291906200022c565b509050506103e8600581905550620002db565b828054600181600116156101000203166002900490600052602060002090601f016020900481019282601f106200026f57805160ff1916838001178555620002a0565b82800160010185558215620002a0579182015b828111156200029f57825182559160200191906001019062000282565b5b509050620002af9190620002b3565b5090565b620002d891905b80821115620002d4576000816000905550600101620002ba565b5090565b90565b6114f880620002eb6000396000f3fe608060405260043610610078576000357c0100000000000000000000000000000000000000000000000000000000900463ffffffff16806301dc1b881461007d5780630c380fc9146100bd5780632ac090b9146100e65780638d94f0bb1461010f5780638f88708b1461014c578063cdbce03d1461018e575b600080fd5b34801561008957600080fd5b506100a4600480360361009f9190810190610f96565b6101b9565b6040516100b494939291906112f7565b60405180910390f35b3480156100c957600080fd5b506100e460048036036100df9190810190610fbf565b6104cc565b005b3480156100f257600080fd5b5061010d6004803603610108919081019061107f565b6105fa565b005b34801561011b57600080fd5b5061013660048036036101319190810190611056565b6107a9565b6040516101439190611251565b60405180910390f35b34801561015857600080fd5b50610173600480360361016e9190810190611056565b6107e4565b6040516101859695949392919061126c565b60405180910390f35b34801561019a57600080fd5b506101a3610d44565b6040516101b09190611251565b60405180910390f35b6060806060806101c7610da8565b600460008773ffffffffffffffffffffffffffffffffffffffff1673ffffffffffffffffffffffffffffffffffffffff16815260200190815260200160002060806040519081016040529081600082018054600181600116156101000203166002900480601f0160208091040260200160405190810160405280929190818152602001828054600181600116156101000203166002900480156102ab5780601f10610280576101008083540402835291602001916102ab565b820191906000526020600020905b81548152906001019060200180831161028e57829003601f168201915b50505050508152602001600182018054600181600116156101000203166002900480601f01602080910402602001604051908101604052809291908181526020018280546001816001161561010002031660029004801561034d5780601f106103225761010080835404028352916020019161034d565b820191906000526020600020905b81548152906001019060200180831161033057829003601f168201915b50505050508152602001600282018054600181600116156101000203166002900480601f0160208091040260200160405190810160405280929190818152602001828054600181600116156101000203166002900480156103ef5780601f106103c4576101008083540402835291602001916103ef565b820191906000526020600020905b8154815290600101906020018083116103d257829003601f168201915b50505050508152602001600382018054600181600116156101000203166002900480601f0160208091040260200160405190810160405280929190818152602001828054600181600116156101000203166002900480156104915780601f1061046657610100808354040283529160200191610491565b820191906000526020600020905b81548152906001019060200180831161047457829003601f168201915b505050505081525050905080600001518160200151826040015183606001518393508292508191508090509450945094509450509193509193565b600115156000803373ffffffffffffffffffffffffffffffffffffffff1673ffffffffffffffffffffffffffffffffffffffff16815260200190815260200160002060009054906101000a900460ff16151514151561052a57600080fd5b600560008154809291906001019190505550606060405190810160405280848152602001838152602001828152506001600060055481526020019081526020016000206000820151816000019080519060200190610589929190610dd1565b5060208201518160010190805190602001906105a6929190610dd1565b5060408201518160020190805190602001906105c3929190610dd1565b50905050600160036000600554815260200190815260200160002060006101000a81548160ff021916908315150217905550505050565b600115156000803373ffffffffffffffffffffffffffffffffffffffff1673ffffffffffffffffffffffffffffffffffffffff16815260200190815260200160002060009054906101000a900460ff16151514151561065857600080fd5b6003600084815260200190815260200160002060009054906101000a900460ff16151561068457600080fd5b600260008481526020019081526020016000206000018290806001815401808255809150509060018203906000526020600020016000909192909190915090805190602001906106d5929190610e51565b505060026000848152602001908152602001600020600101819080600181540180825580915050906001820390600052602060002001600090919290919091509080519060200190610728929190610e51565b5050600260008481526020019081526020016000206002013390806001815401808255809150509060018203906000526020600020016000909192909190916101000a81548173ffffffffffffffffffffffffffffffffffffffff021916908373ffffffffffffffffffffffffffffffffffffffff16021790555050505050565b60006003600083815260200190815260200160002060009054906101000a900460ff16156107da57600190506107df565b600090505b919050565b606080606080606080600115156000803373ffffffffffffffffffffffffffffffffffffffff1673ffffffffffffffffffffffffffffffffffffffff16815260200190815260200160002060009054906101000a900460ff16151514151561084b57600080fd5b6003600088815260200190815260200160002060009054906101000a900460ff16151561087757600080fd5b61087f610ed1565b6001600089815260200190815260200160002060606040519081016040529081600082018054600181600116156101000203166002900480601f0160208091040260200160405190810160405280929190818152602001828054600181600116156101000203166002900480156109375780601f1061090c57610100808354040283529160200191610937565b820191906000526020600020905b81548152906001019060200180831161091a57829003601f168201915b50505050508152602001600182018054600181600116156101000203166002900480601f0160208091040260200160405190810160405280929190818152602001828054600181600116156101000203166002900480156109d95780601f106109ae576101008083540402835291602001916109d9565b820191906000526020600020905b8154815290600101906020018083116109bc57829003601f168201915b50505050508152602001600282018054600181600116156101000203166002900480601f016020809104026020016040519081016040528092919081815260200182805460018160011615610100020316600290048015610a7b5780601f10610a5057610100808354040283529160200191610a7b565b820191906000526020600020905b815481529060010190602001808311610a5e57829003601f168201915b5050505050815250509050806000015181602001518260400151600260008c8152602001908152602001600020600001600260008d8152602001908152602001600020600101600260008e815260200190815260200160002060020185955084945083935082805480602002602001604051908101604052809291908181526020016000905b82821015610bbd578382906000526020600020018054600181600116156101000203166002900480601f016020809104026020016040519081016040528092919081815260200182805460018160011615610100020316600290048015610ba95780601f10610b7e57610100808354040283529160200191610ba9565b820191906000526020600020905b815481529060010190602001808311610b8c57829003601f168201915b505050505081526020019060010190610b01565b50505050925081805480602002602001604051908101604052809291908181526020016000905b82821015610ca0578382906000526020600020018054600181600116156101000203166002900480601f016020809104026020016040519081016040528092919081815260200182805460018160011615610100020316600290048015610c8c5780601f10610c6157610100808354040283529160200191610c8c565b820191906000526020600020905b815481529060010190602001808311610c6f57829003601f168201915b505050505081526020019060010190610be4565b50505050915080805480602002602001604051908101604052809291908181526020018280548015610d2757602002820191906000526020600020905b8160009054906101000a900473ffffffffffffffffffffffffffffffffffffffff1673ffffffffffffffffffffffffffffffffffffffff1681526020019060010190808311610cdd575b505050505090509650965096509650965096505091939550919395565b60008060003373ffffffffffffffffffffffffffffffffffffffff1673ffffffffffffffffffffffffffffffffffffffff16815260200190815260200160002060009054906101000a900460ff1615610da05760019050610da5565b600090505b90565b608060405190810160405280606081526020016060815260200160608152602001606081525090565b828054600181600116156101000203166002900490600052602060002090601f016020900481019282601f10610e1257805160ff1916838001178555610e40565b82800160010185558215610e40579182015b82811115610e3f578251825591602001919060010190610e24565b5b509050610e4d9190610ef3565b5090565b828054600181600116156101000203166002900490600052602060002090601f016020900481019282601f10610e9257805160ff1916838001178555610ec0565b82800160010185558215610ec0579182015b82811115610ebf578251825591602001919060010190610ea4565b5b509050610ecd9190610ef3565b5090565b6060604051908101604052806060815260200160608152602001606081525090565b610f1591905b80821115610f11576000816000905550600101610ef9565b5090565b90565b6000610f24823561144f565b905092915050565b600082601f8301121515610f3f57600080fd5b8135610f52610f4d82611385565b611358565b91508082526020830160208301858383011115610f6e57600080fd5b610f7983828461146b565b50505092915050565b6000610f8e8235611461565b905092915050565b600060208284031215610fa857600080fd5b6000610fb684828501610f18565b91505092915050565b600080600060608486031215610fd457600080fd5b600084013567ffffffffffffffff811115610fee57600080fd5b610ffa86828701610f2c565b935050602084013567ffffffffffffffff81111561101757600080fd5b61102386828701610f2c565b925050604084013567ffffffffffffffff81111561104057600080fd5b61104c86828701610f2c565b9150509250925092565b60006020828403121561106857600080fd5b600061107684828501610f82565b91505092915050565b60008060006060848603121561109457600080fd5b60006110a286828701610f82565b935050602084013567ffffffffffffffff8111156110bf57600080fd5b6110cb86828701610f2c565b925050604084013567ffffffffffffffff8111156110e857600080fd5b6110f486828701610f2c565b9150509250925092565b61110781611411565b82525050565b6000611118826113cb565b80845260208401935061112a836113b1565b60005b8281101561115c576111408683516110fe565b611149826113f7565b915060208601955060018101905061112d565b50849250505092915050565b6000611173826113d6565b8084526020840193508360208202850161118c856113be565b60005b848110156111c55783830388526111a783835161121b565b92506111b282611404565b915060208801975060018101905061118f565b508196508694505050505092915050565b6111df81611423565b82525050565b60006111f0826113ec565b80845261120481602086016020860161147a565b61120d816114ad565b602085010191505092915050565b6000611226826113e1565b80845261123a81602086016020860161147a565b611243816114ad565b602085010191505092915050565b600060208201905061126660008301846111d6565b92915050565b600060c082019050818103600083015261128681896111e5565b9050818103602083015261129a81886111e5565b905081810360408301526112ae81876111e5565b905081810360608301526112c28186611168565b905081810360808301526112d68185611168565b905081810360a08301526112ea818461110d565b9050979650505050505050565b6000608082019050818103600083015261131181876111e5565b9050818103602083015261132581866111e5565b9050818103604083015261133981856111e5565b9050818103606083015261134d81846111e5565b905095945050505050565b6000604051905081810181811067ffffffffffffffff8211171561137b57600080fd5b8060405250919050565b600067ffffffffffffffff82111561139c57600080fd5b601f19601f8301169050602081019050919050565b6000602082019050919050565b6000602082019050919050565b600081519050919050565b600081519050919050565b600081519050919050565b600081519050919050565b6000602082019050919050565b6000602082019050919050565b600061141c8261142f565b9050919050565b60008115159050919050565b600073ffffffffffffffffffffffffffffffffffffffff82169050919050565b600061145a8261142f565b9050919050565b6000819050919050565b82818337600083830152505050565b60005b8381101561149857808201518184015260208101905061147d565b838111156114a7576000848401525b50505050565b6000601f19601f830116905091905056fea265627a7a723058203996f6a8c1fd8deb32f7a047a19904e907867f47a7e28dc6ef048bb646ab93886c6578706572696d656e74616cf50037",
  "source": "pragma solidity ^0.5.0;\npragma experimental ABIEncoderV2;\n\ncontract Healthcare{\n    mapping(address => bool) private owners;\n    struct person{\n        string name;\n        string age;\n        string bloodgrp;\n    }\n    struct links{\n        string [] hash;\n        string [] time;\n        address [] hospital;\n    }\n    struct hospital_data {\n        string hosp_name;\n        string hosp_add;\n        string hosp_city;\n        string hosp_country;\n    }\n    \n    mapping(uint256 => person) private patient;\n    mapping(uint256 => links) private hashes; \n    mapping(uint256 => bool) private check;\n    mapping (address => hospital_data) private Hospital_Info;\n    \n    constructor() public {\n        owners[msg.sender] = true;\n        Hospital_Info[msg.sender] = hospital_data(\"Contract Initialiser\" ,\"Dwarka Sector - 1\",\"New Delhi\",\"India\");\n        id = 1000;\n    } \n    \n    modifier onlyOwner {\n        require(owners[msg.sender] == true);\n        _;\n    }\n    uint256 private id;\n    \n    function checkOwner() public view returns(bool _own){\n        if(owners[msg.sender]){\n        return true;\n    }\n        return false;\n    }\n    function HospitalDetail (address Add) public view returns(string memory hname, string memory hadd, string memory hcity, string memory hcountry){\n        hospital_data memory H = Hospital_Info[Add];\n        return (H.hosp_name,H.hosp_add, H.hosp_city, H.hosp_country);        \n    }\n    \n    function addPatient(string memory _name, string memory _dob, string memory _bloodgrp) public onlyOwner{\n        id++ ;\n        patient[id] = person(_name,_dob, _bloodgrp);\n        check[id] = true;\n    }\n    \n    function checkID(uint256 _id) public view returns(bool _checkid){\n        if(check[_id]){\n        return true;\n        }\n        return false;\n    }\n    \n    function addRecords(uint256 _id, string memory _hash, string memory _time) public onlyOwner {\n        require(check[_id]);\n        hashes[_id].hash.push(_hash);\n        hashes[_id].time.push(_time);\n        hashes[_id].hospital.push(msg.sender);\n    }\n    \n    function retrieve(uint256 _id)public view onlyOwner returns(string memory _name , string memory _age, string memory _bloodgrp, string [] memory _hashes, string [] memory _time, address [] memory _hospital){\n        require(check[_id]);\n        person memory P = patient[_id];\n        return (P.name, P.age, P.bloodgrp,hashes[_id].hash, hashes[_id].time, hashes[_id].hospital);\n    } \n    \n}",
  "sourcePath": "/home/ayush1586/Desktop/Hospital_BlockChain/src/contracts/Healthcare.sol",
  "compiler": {
    "name": "solc",
    "version": "0.5.0+commit.1d4f565a.Emscripten.clang"
  },
  "schemaVersion": "3.0.1",
  "updatedAt": "2020-03-19T15:05:26.232Z",
  "devdoc": {
    "methods": {}
  },
  "userdoc": {
    "methods": {}
  }
}