{
  "contractName": "Healthcare",
  "abi": [
    {
      "inputs": [],
      "payable": false,
      "stateMutability": "nonpayable",
      "type": "constructor",
      "signature": "constructor"
    },
    {
      "constant": true,
      "inputs": [],
      "name": "checkOwner",
      "outputs": [
        {
          "name": "_own",
          "type": "bool"
        }
      ],
      "payable": false,
      "stateMutability": "view",
      "type": "function",
      "signature": "0xcdbce03d"
    },
    {
      "constant": true,
      "inputs": [
        {
          "name": "Add",
          "type": "address"
        }
      ],
      "name": "HospitalDetail",
      "outputs": [
        {
          "name": "hname",
          "type": "string"
        },
        {
          "name": "hadd",
          "type": "string"
        },
        {
          "name": "hcity",
          "type": "string"
        },
        {
          "name": "hcountry",
          "type": "string"
        }
      ],
      "payable": false,
      "stateMutability": "view",
      "type": "function",
      "signature": "0x01dc1b88"
    },
    {
      "constant": false,
      "inputs": [
        {
          "name": "_id",
          "type": "uint256"
        },
        {
          "name": "_name",
          "type": "string"
        },
        {
          "name": "_dob",
          "type": "string"
        },
        {
          "name": "_bloodgrp",
          "type": "string"
        }
      ],
      "name": "addPatient",
      "outputs": [],
      "payable": false,
      "stateMutability": "nonpayable",
      "type": "function",
      "signature": "0xbde9b3a4"
    },
    {
      "constant": true,
      "inputs": [
        {
          "name": "_id",
          "type": "uint256"
        }
      ],
      "name": "checkID",
      "outputs": [
        {
          "name": "_checkid",
          "type": "bool"
        }
      ],
      "payable": false,
      "stateMutability": "view",
      "type": "function",
      "signature": "0x8d94f0bb"
    },
    {
      "constant": false,
      "inputs": [
        {
          "name": "_id",
          "type": "uint256"
        },
        {
          "name": "_hash",
          "type": "string"
        },
        {
          "name": "_time",
          "type": "string"
        }
      ],
      "name": "addRecords",
      "outputs": [],
      "payable": false,
      "stateMutability": "nonpayable",
      "type": "function",
      "signature": "0x2ac090b9"
    },
    {
      "constant": true,
      "inputs": [
        {
          "name": "_id",
          "type": "uint256"
        }
      ],
      "name": "retrieve",
      "outputs": [
        {
          "name": "_name",
          "type": "string"
        },
        {
          "name": "_age",
          "type": "string"
        },
        {
          "name": "_bloodgrp",
          "type": "string"
        },
        {
          "name": "_hashes",
          "type": "string[]"
        },
        {
          "name": "_time",
          "type": "string[]"
        },
        {
          "name": "_hospital",
          "type": "address[]"
        }
      ],
      "payable": false,
      "stateMutability": "view",
      "type": "function",
      "signature": "0x8f88708b"
    }
  ],
  "bytecode": "0x60806040523480156200001157600080fd5b5060016000803373ffffffffffffffffffffffffffffffffffffffff1673ffffffffffffffffffffffffffffffffffffffff16815260200190815260200160002060006101000a81548160ff0219169083151502179055506080604051908101604052806040805190810160405280601481526020017f436f6e747261637420496e697469616c6973657200000000000000000000000081525081526020016040805190810160405280601181526020017f447761726b6120536563746f72202d203100000000000000000000000000000081525081526020016040805190810160405280600981526020017f4e65772044656c6869000000000000000000000000000000000000000000000081525081526020016040805190810160405280600581526020017f496e646961000000000000000000000000000000000000000000000000000000815250815250600460003373ffffffffffffffffffffffffffffffffffffffff1673ffffffffffffffffffffffffffffffffffffffff1681526020019081526020016000206000820151816000019080519060200190620001bc92919062000aae565b506020820151816001019080519060200190620001db92919062000aae565b506040820151816002019080519060200190620001fa92919062000aae565b5060608201518160030190805190602001906200021992919062000aae565b50905050600073318e57a2e28868b100aad751eef1136e854e765a905060016000808373ffffffffffffffffffffffffffffffffffffffff1673ffffffffffffffffffffffffffffffffffffffff16815260200190815260200160002060006101000a81548160ff0219169083151502179055506080604051908101604052806040805190810160405280601d81526020017f4465656e20446179616c2055706164686179617920486f73706974616c00000081525081526020016040805190810160405280600b81526020017f54696c616b204e6167617200000000000000000000000000000000000000000081525081526020016040805190810160405280600981526020017f4e65772044656c6869000000000000000000000000000000000000000000000081525081526020016040805190810160405280600581526020017f496e646961000000000000000000000000000000000000000000000000000000815250815250600460008373ffffffffffffffffffffffffffffffffffffffff1673ffffffffffffffffffffffffffffffffffffffff1681526020019081526020016000206000820151816000019080519060200190620003e092919062000aae565b506020820151816001019080519060200190620003ff92919062000aae565b5060408201518160020190805190602001906200041e92919062000aae565b5060608201518160030190805190602001906200043d92919062000aae565b5090505073692991888659c3e8ad043b262b0af97415ea4adb905060016000808373ffffffffffffffffffffffffffffffffffffffff1673ffffffffffffffffffffffffffffffffffffffff16815260200190815260200160002060006101000a81548160ff0219169083151502179055506080604051908101604052806040805190810160405280601981526020017f4d61686172616a61204167726173656e20486f73706974616c0000000000000081525081526020016040805190810160405280601181526020017f447761726b6120536563746f72202d203100000000000000000000000000000081525081526020016040805190810160405280600981526020017f4e65772044656c6869000000000000000000000000000000000000000000000081525081526020016040805190810160405280600581526020017f496e646961000000000000000000000000000000000000000000000000000000815250815250600460008373ffffffffffffffffffffffffffffffffffffffff1673ffffffffffffffffffffffffffffffffffffffff16815260200190815260200160002060008201518160000190805190602001906200060292919062000aae565b5060208201518160010190805190602001906200062192919062000aae565b5060408201518160020190805190602001906200064092919062000aae565b5060608201518160030190805190602001906200065f92919062000aae565b509050507347bad77ae2ad383d1ec9afcd126d3b8629ff1bb0905060016000808373ffffffffffffffffffffffffffffffffffffffff1673ffffffffffffffffffffffffffffffffffffffff16815260200190815260200160002060006101000a81548160ff0219169083151502179055506080604051908101604052806040805190810160405280600f81526020017f466f7274697320486f73706974616c000000000000000000000000000000000081525081526020016040805190810160405280600681526020017f42616e647261000000000000000000000000000000000000000000000000000081525081526020016040805190810160405280600681526020017f4d756d626169000000000000000000000000000000000000000000000000000081525081526020016040805190810160405280600581526020017f496e646961000000000000000000000000000000000000000000000000000000815250815250600460008373ffffffffffffffffffffffffffffffffffffffff1673ffffffffffffffffffffffffffffffffffffffff16815260200190815260200160002060008201518160000190805190602001906200082492919062000aae565b5060208201518160010190805190602001906200084392919062000aae565b5060408201518160020190805190602001906200086292919062000aae565b5060608201518160030190805190602001906200088192919062000aae565b5090505073246dbf38765ab779a53c4db220df5db83af8b211905060016000808373ffffffffffffffffffffffffffffffffffffffff1673ffffffffffffffffffffffffffffffffffffffff16815260200190815260200160002060006101000a81548160ff0219169083151502179055506080604051908101604052806040805190810160405280601981526020017f576f726c64204865616c7468204f7267616e69736174696f6e0000000000000081525081526020016040805190810160405280600981526020017f43697479205061726b000000000000000000000000000000000000000000000081525081526020016040805190810160405280600881526020017f4e657720596f726b00000000000000000000000000000000000000000000000081525081526020016040805190810160405280601881526020017f556e6974656420537461746573204f6620416d65726963610000000000000000815250815250600460008373ffffffffffffffffffffffffffffffffffffffff1673ffffffffffffffffffffffffffffffffffffffff168152602001908152602001600020600082015181600001908051906020019062000a4692919062000aae565b50602082015181600101908051906020019062000a6592919062000aae565b50604082015181600201908051906020019062000a8492919062000aae565b50606082015181600301908051906020019062000aa392919062000aae565b509050505062000b5d565b828054600181600116156101000203166002900490600052602060002090601f016020900481019282601f1062000af157805160ff191683800117855562000b22565b8280016001018555821562000b22579182015b8281111562000b2157825182559160200191906001019062000b04565b5b50905062000b31919062000b35565b5090565b62000b5a91905b8082111562000b5657600081600090555060010162000b3c565b5090565b90565b6114f78062000b6d6000396000f3fe608060405260043610610078576000357c0100000000000000000000000000000000000000000000000000000000900463ffffffff16806301dc1b881461007d5780632ac090b9146100bd5780638d94f0bb146100e65780638f88708b14610123578063bde9b3a414610165578063cdbce03d1461018e575b600080fd5b34801561008957600080fd5b506100a4600480360361009f9190810190610f81565b6101b9565b6040516100b494939291906112f6565b60405180910390f35b3480156100c957600080fd5b506100e460048036036100df9190810190610fd3565b6104cc565b005b3480156100f257600080fd5b5061010d60048036036101089190810190610faa565b61067b565b60405161011a9190611250565b60405180910390f35b34801561012f57600080fd5b5061014a60048036036101459190810190610faa565b6106b6565b60405161015c9695949392919061126b565b60405180910390f35b34801561017157600080fd5b5061018c60048036036101879190810190611052565b610c16565b005b34801561019a57600080fd5b506101a3610d2f565b6040516101b09190611250565b60405180910390f35b6060806060806101c7610d93565b600460008773ffffffffffffffffffffffffffffffffffffffff1673ffffffffffffffffffffffffffffffffffffffff16815260200190815260200160002060806040519081016040529081600082018054600181600116156101000203166002900480601f0160208091040260200160405190810160405280929190818152602001828054600181600116156101000203166002900480156102ab5780601f10610280576101008083540402835291602001916102ab565b820191906000526020600020905b81548152906001019060200180831161028e57829003601f168201915b50505050508152602001600182018054600181600116156101000203166002900480601f01602080910402602001604051908101604052809291908181526020018280546001816001161561010002031660029004801561034d5780601f106103225761010080835404028352916020019161034d565b820191906000526020600020905b81548152906001019060200180831161033057829003601f168201915b50505050508152602001600282018054600181600116156101000203166002900480601f0160208091040260200160405190810160405280929190818152602001828054600181600116156101000203166002900480156103ef5780601f106103c4576101008083540402835291602001916103ef565b820191906000526020600020905b8154815290600101906020018083116103d257829003601f168201915b50505050508152602001600382018054600181600116156101000203166002900480601f0160208091040260200160405190810160405280929190818152602001828054600181600116156101000203166002900480156104915780601f1061046657610100808354040283529160200191610491565b820191906000526020600020905b81548152906001019060200180831161047457829003601f168201915b505050505081525050905080600001518160200151826040015183606001518393508292508191508090509450945094509450509193509193565b600115156000803373ffffffffffffffffffffffffffffffffffffffff1673ffffffffffffffffffffffffffffffffffffffff16815260200190815260200160002060009054906101000a900460ff16151514151561052a57600080fd5b6003600084815260200190815260200160002060009054906101000a900460ff16151561055657600080fd5b600260008481526020019081526020016000206000018290806001815401808255809150509060018203906000526020600020016000909192909190915090805190602001906105a7929190610dbc565b5050600260008481526020019081526020016000206001018190806001815401808255809150509060018203906000526020600020016000909192909190915090805190602001906105fa929190610dbc565b5050600260008481526020019081526020016000206002013390806001815401808255809150509060018203906000526020600020016000909192909190916101000a81548173ffffffffffffffffffffffffffffffffffffffff021916908373ffffffffffffffffffffffffffffffffffffffff16021790555050505050565b60006003600083815260200190815260200160002060009054906101000a900460ff16156106ac57600190506106b1565b600090505b919050565b606080606080606080600115156000803373ffffffffffffffffffffffffffffffffffffffff1673ffffffffffffffffffffffffffffffffffffffff16815260200190815260200160002060009054906101000a900460ff16151514151561071d57600080fd5b6003600088815260200190815260200160002060009054906101000a900460ff16151561074957600080fd5b610751610e3c565b6001600089815260200190815260200160002060606040519081016040529081600082018054600181600116156101000203166002900480601f0160208091040260200160405190810160405280929190818152602001828054600181600116156101000203166002900480156108095780601f106107de57610100808354040283529160200191610809565b820191906000526020600020905b8154815290600101906020018083116107ec57829003601f168201915b50505050508152602001600182018054600181600116156101000203166002900480601f0160208091040260200160405190810160405280929190818152602001828054600181600116156101000203166002900480156108ab5780601f10610880576101008083540402835291602001916108ab565b820191906000526020600020905b81548152906001019060200180831161088e57829003601f168201915b50505050508152602001600282018054600181600116156101000203166002900480601f01602080910402602001604051908101604052809291908181526020018280546001816001161561010002031660029004801561094d5780601f106109225761010080835404028352916020019161094d565b820191906000526020600020905b81548152906001019060200180831161093057829003601f168201915b5050505050815250509050806000015181602001518260400151600260008c8152602001908152602001600020600001600260008d8152602001908152602001600020600101600260008e815260200190815260200160002060020185955084945083935082805480602002602001604051908101604052809291908181526020016000905b82821015610a8f578382906000526020600020018054600181600116156101000203166002900480601f016020809104026020016040519081016040528092919081815260200182805460018160011615610100020316600290048015610a7b5780601f10610a5057610100808354040283529160200191610a7b565b820191906000526020600020905b815481529060010190602001808311610a5e57829003601f168201915b5050505050815260200190600101906109d3565b50505050925081805480602002602001604051908101604052809291908181526020016000905b82821015610b72578382906000526020600020018054600181600116156101000203166002900480601f016020809104026020016040519081016040528092919081815260200182805460018160011615610100020316600290048015610b5e5780601f10610b3357610100808354040283529160200191610b5e565b820191906000526020600020905b815481529060010190602001808311610b4157829003601f168201915b505050505081526020019060010190610ab6565b50505050915080805480602002602001604051908101604052809291908181526020018280548015610bf957602002820191906000526020600020905b8160009054906101000a900473ffffffffffffffffffffffffffffffffffffffff1673ffffffffffffffffffffffffffffffffffffffff1681526020019060010190808311610baf575b505050505090509650965096509650965096505091939550919395565b600115156000803373ffffffffffffffffffffffffffffffffffffffff1673ffffffffffffffffffffffffffffffffffffffff16815260200190815260200160002060009054906101000a900460ff161515141515610c7457600080fd5b60606040519081016040528084815260200183815260200182815250600160008681526020019081526020016000206000820151816000019080519060200190610cbf929190610e5e565b506020820151816001019080519060200190610cdc929190610e5e565b506040820151816002019080519060200190610cf9929190610e5e565b5090505060016003600086815260200190815260200160002060006101000a81548160ff02191690831515021790555050505050565b60008060003373ffffffffffffffffffffffffffffffffffffffff1673ffffffffffffffffffffffffffffffffffffffff16815260200190815260200160002060009054906101000a900460ff1615610d8b5760019050610d90565b600090505b90565b608060405190810160405280606081526020016060815260200160608152602001606081525090565b828054600181600116156101000203166002900490600052602060002090601f016020900481019282601f10610dfd57805160ff1916838001178555610e2b565b82800160010185558215610e2b579182015b82811115610e2a578251825591602001919060010190610e0f565b5b509050610e389190610ede565b5090565b6060604051908101604052806060815260200160608152602001606081525090565b828054600181600116156101000203166002900490600052602060002090601f016020900481019282601f10610e9f57805160ff1916838001178555610ecd565b82800160010185558215610ecd579182015b82811115610ecc578251825591602001919060010190610eb1565b5b509050610eda9190610ede565b5090565b610f0091905b80821115610efc576000816000905550600101610ee4565b5090565b90565b6000610f0f823561144e565b905092915050565b600082601f8301121515610f2a57600080fd5b8135610f3d610f3882611384565b611357565b91508082526020830160208301858383011115610f5957600080fd5b610f6483828461146a565b50505092915050565b6000610f798235611460565b905092915050565b600060208284031215610f9357600080fd5b6000610fa184828501610f03565b91505092915050565b600060208284031215610fbc57600080fd5b6000610fca84828501610f6d565b91505092915050565b600080600060608486031215610fe857600080fd5b6000610ff686828701610f6d565b935050602084013567ffffffffffffffff81111561101357600080fd5b61101f86828701610f17565b925050604084013567ffffffffffffffff81111561103c57600080fd5b61104886828701610f17565b9150509250925092565b6000806000806080858703121561106857600080fd5b600061107687828801610f6d565b945050602085013567ffffffffffffffff81111561109357600080fd5b61109f87828801610f17565b935050604085013567ffffffffffffffff8111156110bc57600080fd5b6110c887828801610f17565b925050606085013567ffffffffffffffff8111156110e557600080fd5b6110f187828801610f17565b91505092959194509250565b61110681611410565b82525050565b6000611117826113ca565b808452602084019350611129836113b0565b60005b8281101561115b5761113f8683516110fd565b611148826113f6565b915060208601955060018101905061112c565b50849250505092915050565b6000611172826113d5565b8084526020840193508360208202850161118b856113bd565b60005b848110156111c45783830388526111a683835161121a565b92506111b182611403565b915060208801975060018101905061118e565b508196508694505050505092915050565b6111de81611422565b82525050565b60006111ef826113eb565b808452611203816020860160208601611479565b61120c816114ac565b602085010191505092915050565b6000611225826113e0565b808452611239816020860160208601611479565b611242816114ac565b602085010191505092915050565b600060208201905061126560008301846111d5565b92915050565b600060c082019050818103600083015261128581896111e4565b9050818103602083015261129981886111e4565b905081810360408301526112ad81876111e4565b905081810360608301526112c18186611167565b905081810360808301526112d58185611167565b905081810360a08301526112e9818461110c565b9050979650505050505050565b6000608082019050818103600083015261131081876111e4565b9050818103602083015261132481866111e4565b9050818103604083015261133881856111e4565b9050818103606083015261134c81846111e4565b905095945050505050565b6000604051905081810181811067ffffffffffffffff8211171561137a57600080fd5b8060405250919050565b600067ffffffffffffffff82111561139b57600080fd5b601f19601f8301169050602081019050919050565b6000602082019050919050565b6000602082019050919050565b600081519050919050565b600081519050919050565b600081519050919050565b600081519050919050565b6000602082019050919050565b6000602082019050919050565b600061141b8261142e565b9050919050565b60008115159050919050565b600073ffffffffffffffffffffffffffffffffffffffff82169050919050565b60006114598261142e565b9050919050565b6000819050919050565b82818337600083830152505050565b60005b8381101561149757808201518184015260208101905061147c565b838111156114a6576000848401525b50505050565b6000601f19601f830116905091905056fea265627a7a72305820e05338faa93c4e8e68a95992f0315699578ebb799d7ab7f4fc7480ba317ac3ae6c6578706572696d656e74616cf50037",
  "source": "pragma solidity ^0.5.0;\npragma experimental ABIEncoderV2;\n\ncontract Healthcare{\n    mapping(address => bool) private owners;\n    struct person{\n        string name;\n        string age;\n        string bloodgrp;\n    }\n    struct links{\n        string [] hash;\n        string [] time;\n        address [] hospital;\n    }\n    struct hospital_data {\n        string hosp_name;\n        string hosp_add;\n        string hosp_city;\n        string hosp_country;\n    }\n    \n    mapping(uint256 => person) private patient;\n    mapping(uint256 => links) private hashes; \n    mapping(uint256 => bool) private check;\n    mapping (address => hospital_data) private Hospital_Info;\n    \n    constructor() public {\n        owners[msg.sender] = true;\n        Hospital_Info[msg.sender] = hospital_data(\"Contract Initialiser\" ,\"Dwarka Sector - 1\",\"New Delhi\",\"India\");\n        \n        address temp = 0x318E57a2e28868B100Aad751eeF1136E854e765a;\n        owners[temp] = true;\n        Hospital_Info[temp] = hospital_data(\"Deen Dayal Upadhayay Hospital\", \"Tilak Nagar\",\"New Delhi\",\"India\");\n        \n        temp = 0x692991888659c3e8Ad043B262B0AF97415eA4aDB;\n        owners[temp] = true;\n        Hospital_Info[temp] = hospital_data(\"Maharaja Agrasen Hospital\",\"Dwarka Sector - 1\",\"New Delhi\",\"India\");\n\n        temp = 0x47bAD77AE2ad383d1ec9aFCD126d3B8629FF1BB0;\n        owners[temp] = true;\n        Hospital_Info[temp] = hospital_data(\"Fortis Hospital\",\"Bandra\",\"Mumbai\",\"India\");\n\n        temp = 0x246DBf38765Ab779a53c4DB220df5DB83Af8B211;\n        owners[temp]= true;\n        Hospital_Info[temp] = hospital_data(\"World Health Organisation\",\"City Park\",\"New York\",\"United States Of America\");\n    } \n    \n    modifier onlyOwner {\n        require(owners[msg.sender] == true);\n        _;\n    }\n\n    \n    function checkOwner() public view returns(bool _own){\n        if(owners[msg.sender]){\n        return true;\n    }\n        return false;\n    }\n    function HospitalDetail (address Add) public view returns(string memory hname, string memory hadd, string memory hcity, string memory hcountry){\n        hospital_data memory H = Hospital_Info[Add];\n        return (H.hosp_name,H.hosp_add, H.hosp_city, H.hosp_country);        \n    }\n    \n    function addPatient(uint256 _id, string memory _name, string memory _dob, string memory _bloodgrp) public onlyOwner{\n        patient[_id] = person(_name,_dob, _bloodgrp);\n        check[_id] = true;\n    }\n    \n    function checkID(uint256 _id) public view returns(bool _checkid){\n        if(check[_id]){\n        return true;\n        }\n        return false;\n    }\n    \n    function addRecords(uint256 _id, string memory _hash, string memory _time) public onlyOwner {\n        require(check[_id]);\n        hashes[_id].hash.push(_hash);\n        hashes[_id].time.push(_time);\n        hashes[_id].hospital.push(msg.sender);\n    }\n    \n    function retrieve(uint256 _id)public view onlyOwner returns(string memory _name , string memory _age, string memory _bloodgrp, string [] memory _hashes, string [] memory _time, address [] memory _hospital){\n        require(check[_id]);\n        person memory P = patient[_id];\n        return (P.name, P.age, P.bloodgrp,hashes[_id].hash, hashes[_id].time, hashes[_id].hospital);\n    } \n    \n}",
  "sourcePath": "/home/ayush1586/Desktop/Hospital_BlockChain/src/contracts/Healthcare.sol",
  "compiler": {
    "name": "solc",
    "version": "0.5.0+commit.1d4f565a.Emscripten.clang"
  },
  "schemaVersion": "3.0.1",
  "updatedAt": "2020-03-20T12:19:39.239Z",
  "devdoc": {
    "methods": {}
  },
  "userdoc": {
    "methods": {}
  }
}